{
  "_format": "hh-sol-artifact-1",
  "contractName": "LandRegistry",
  "sourceName": "contracts/LandRegistry.sol",
  "abi": [
    {
      "anonymous": false,
      "inputs": [
        {
          "indexed": true,
          "internalType": "uint256",
          "name": "id",
          "type": "uint256"
        },
        {
          "indexed": true,
          "internalType": "address",
          "name": "owner",
          "type": "address"
        },
        {
          "indexed": false,
          "internalType": "string",
          "name": "location",
          "type": "string"
        }
      ],
      "name": "LandAdded",
      "type": "event"
    },
    {
      "anonymous": false,
      "inputs": [
        {
          "indexed": true,
          "internalType": "uint256",
          "name": "id",
          "type": "uint256"
        },
        {
          "indexed": true,
          "internalType": "address",
          "name": "from",
          "type": "address"
        },
        {
          "indexed": true,
          "internalType": "address",
          "name": "to",
          "type": "address"
        }
      ],
      "name": "LandTransferred",
      "type": "event"
    },
    {
      "inputs": [],
      "name": "getAllLands",
      "outputs": [
        {
          "components": [
            {
              "internalType": "uint256",
              "name": "id",
              "type": "uint256"
            },
            {
              "internalType": "string",
              "name": "location",
              "type": "string"
            },
            {
              "internalType": "uint256",
              "name": "area",
              "type": "uint256"
            },
            {
              "internalType": "string",
              "name": "surveyNumber",
              "type": "string"
            },
            {
              "internalType": "address",
              "name": "owner",
              "type": "address"
            },
            {
              "internalType": "uint256",
              "name": "price",
              "type": "uint256"
            },
            {
              "internalType": "bool",
              "name": "isVerified",
              "type": "bool"
            },
            {
              "internalType": "string",
              "name": "documentHash",
              "type": "string"
            },
            {
              "internalType": "string",
              "name": "imageHash",
              "type": "string"
            }
          ],
          "internalType": "struct LandRegistry.Land[]",
          "name": "",
          "type": "tuple[]"
        }
      ],
      "stateMutability": "view",
      "type": "function"
    },
    {
      "inputs": [
        {
          "internalType": "uint256",
          "name": "_landId",
          "type": "uint256"
        }
      ],
      "name": "getLandDetails",
      "outputs": [
        {
          "components": [
            {
              "internalType": "uint256",
              "name": "id",
              "type": "uint256"
            },
            {
              "internalType": "string",
              "name": "location",
              "type": "string"
            },
            {
              "internalType": "uint256",
              "name": "area",
              "type": "uint256"
            },
            {
              "internalType": "string",
              "name": "surveyNumber",
              "type": "string"
            },
            {
              "internalType": "address",
              "name": "owner",
              "type": "address"
            },
            {
              "internalType": "uint256",
              "name": "price",
              "type": "uint256"
            },
            {
              "internalType": "bool",
              "name": "isVerified",
              "type": "bool"
            },
            {
              "internalType": "string",
              "name": "documentHash",
              "type": "string"
            },
            {
              "internalType": "string",
              "name": "imageHash",
              "type": "string"
            }
          ],
          "internalType": "struct LandRegistry.Land",
          "name": "",
          "type": "tuple"
        }
      ],
      "stateMutability": "view",
      "type": "function"
    },
    {
      "inputs": [],
      "name": "landCount",
      "outputs": [
        {
          "internalType": "uint256",
          "name": "",
          "type": "uint256"
        }
      ],
      "stateMutability": "view",
      "type": "function"
    },
    {
      "inputs": [
        {
          "internalType": "uint256",
          "name": "",
          "type": "uint256"
        }
      ],
      "name": "lands",
      "outputs": [
        {
          "internalType": "uint256",
          "name": "id",
          "type": "uint256"
        },
        {
          "internalType": "string",
          "name": "location",
          "type": "string"
        },
        {
          "internalType": "uint256",
          "name": "area",
          "type": "uint256"
        },
        {
          "internalType": "string",
          "name": "surveyNumber",
          "type": "string"
        },
        {
          "internalType": "address",
          "name": "owner",
          "type": "address"
        },
        {
          "internalType": "uint256",
          "name": "price",
          "type": "uint256"
        },
        {
          "internalType": "bool",
          "name": "isVerified",
          "type": "bool"
        },
        {
          "internalType": "string",
          "name": "documentHash",
          "type": "string"
        },
        {
          "internalType": "string",
          "name": "imageHash",
          "type": "string"
        }
      ],
      "stateMutability": "view",
      "type": "function"
    },
    {
      "inputs": [
        {
          "internalType": "string",
          "name": "_location",
          "type": "string"
        },
        {
          "internalType": "uint256",
          "name": "_area",
          "type": "uint256"
        },
        {
          "internalType": "string",
          "name": "_surveyNumber",
          "type": "string"
        },
        {
          "internalType": "uint256",
          "name": "_price",
          "type": "uint256"
        },
        {
          "internalType": "string",
          "name": "_documentHash",
          "type": "string"
        },
        {
          "internalType": "string",
          "name": "_imageHash",
          "type": "string"
        }
      ],
      "name": "registerLand",
      "outputs": [
        {
          "internalType": "uint256",
          "name": "",
          "type": "uint256"
        }
      ],
      "stateMutability": "nonpayable",
      "type": "function"
    },
    {
      "inputs": [
        {
          "internalType": "uint256",
          "name": "_landId",
          "type": "uint256"
        },
        {
          "internalType": "address",
          "name": "_newOwner",
          "type": "address"
        }
      ],
      "name": "transferLand",
      "outputs": [],
      "stateMutability": "nonpayable",
      "type": "function"
    }
  ],
  "bytecode": "0x60806040526000600155348015601457600080fd5b50611a9c806100246000396000f3fe608060405234801561001057600080fd5b50600436106100625760003560e01c80632ccf240a14610067578063b7b6e54314610097578063c798ff7d146100b5578063d7bce658146100d1578063e261f1e5146100ef578063fe0cb7dc14610127575b600080fd5b610081600480360381019061007c9190610fab565b610157565b60405161008e91906110b7565b60405180910390f35b61009f610321565b6040516100ac9190611358565b60405180910390f35b6100cf60048036038101906100ca91906113a6565b6106c7565b005b6100d9610812565b6040516100e691906110b7565b60405180910390f35b610109600480360381019061010491906113e6565b610818565b60405161011e9998979695949392919061147b565b60405180910390f35b610141600480360381019061013c91906113e6565b610ab3565b60405161014e91906115fe565b60405180910390f35b60006001600081548092919061016c9061164f565b919050555060405180610120016040528060015481526020018881526020018781526020018681526020013373ffffffffffffffffffffffffffffffffffffffff1681526020018581526020016001151581526020018481526020018381525060008060015481526020019081526020016000206000820151816000015560208201518160010190816101ff91906118a3565b5060408201518160020155606082015181600301908161021f91906118a3565b5060808201518160040160006101000a81548173ffffffffffffffffffffffffffffffffffffffff021916908373ffffffffffffffffffffffffffffffffffffffff16021790555060a0820151816005015560c08201518160060160006101000a81548160ff02191690831515021790555060e08201518160070190816102a691906118a3565b506101008201518160080190816102bd91906118a3565b509050503373ffffffffffffffffffffffffffffffffffffffff166001547f2f25d8d395adde157e78c84f5e787a2570dc20cc9f04407e50e540a742c3b0258960405161030a9190611975565b60405180910390a360015490509695505050505050565b6060600060015467ffffffffffffffff81111561034157610340610e4a565b5b60405190808252806020026020018201604052801561037a57816020015b610367610db7565b81526020019060019003908161035f5790505b5090506000600190505b60015481116106bf5760008082815260200190815260200160002060405180610120016040529081600082015481526020016001820180546103c5906116c6565b80601f01602080910402602001604051908101604052809291908181526020018280546103f1906116c6565b801561043e5780601f106104135761010080835404028352916020019161043e565b820191906000526020600020905b81548152906001019060200180831161042157829003601f168201915b5050505050815260200160028201548152602001600382018054610461906116c6565b80601f016020809104026020016040519081016040528092919081815260200182805461048d906116c6565b80156104da5780601f106104af576101008083540402835291602001916104da565b820191906000526020600020905b8154815290600101906020018083116104bd57829003601f168201915b505050505081526020016004820160009054906101000a900473ffffffffffffffffffffffffffffffffffffffff1673ffffffffffffffffffffffffffffffffffffffff1673ffffffffffffffffffffffffffffffffffffffff168152602001600582015481526020016006820160009054906101000a900460ff1615151515815260200160078201805461056e906116c6565b80601f016020809104026020016040519081016040528092919081815260200182805461059a906116c6565b80156105e75780601f106105bc576101008083540402835291602001916105e7565b820191906000526020600020905b8154815290600101906020018083116105ca57829003601f168201915b50505050508152602001600882018054610600906116c6565b80601f016020809104026020016040519081016040528092919081815260200182805461062c906116c6565b80156106795780601f1061064e57610100808354040283529160200191610679565b820191906000526020600020905b81548152906001019060200180831161065c57829003601f168201915b505050505081525050826001836106909190611997565b815181106106a1576106a06119cb565b5b602002602001018190525080806106b79061164f565b915050610384565b508091505090565b600080600084815260200190815260200160002090503373ffffffffffffffffffffffffffffffffffffffff168160040160009054906101000a900473ffffffffffffffffffffffffffffffffffffffff1673ffffffffffffffffffffffffffffffffffffffff161461076f576040517f08c379a000000000000000000000000000000000000000000000000000000000815260040161076690611a46565b60405180910390fd5b818160040160006101000a81548173ffffffffffffffffffffffffffffffffffffffff021916908373ffffffffffffffffffffffffffffffffffffffff1602179055508173ffffffffffffffffffffffffffffffffffffffff163373ffffffffffffffffffffffffffffffffffffffff16847f1080b2f211753e5090f26ef7ffdc6bb3e66a125c7290200d10b502160bb1f56660405160405180910390a4505050565b60015481565b6000602052806000526040600020600091509050806000015490806001018054610841906116c6565b80601f016020809104026020016040519081016040528092919081815260200182805461086d906116c6565b80156108ba5780601f1061088f576101008083540402835291602001916108ba565b820191906000526020600020905b81548152906001019060200180831161089d57829003601f168201915b5050505050908060020154908060030180546108d5906116c6565b80601f0160208091040260200160405190810160405280929190818152602001828054610901906116c6565b801561094e5780601f106109235761010080835404028352916020019161094e565b820191906000526020600020905b81548152906001019060200180831161093157829003601f168201915b5050505050908060040160009054906101000a900473ffffffffffffffffffffffffffffffffffffffff16908060050154908060060160009054906101000a900460ff16908060070180546109a2906116c6565b80601f01602080910402602001604051908101604052809291908181526020018280546109ce906116c6565b8015610a1b5780601f106109f057610100808354040283529160200191610a1b565b820191906000526020600020905b8154815290600101906020018083116109fe57829003601f168201915b505050505090806008018054610a30906116c6565b80601f0160208091040260200160405190810160405280929190818152602001828054610a5c906116c6565b8015610aa95780601f10610a7e57610100808354040283529160200191610aa9565b820191906000526020600020905b815481529060010190602001808311610a8c57829003601f168201915b5050505050905089565b610abb610db7565b6000808381526020019081526020016000206040518061012001604052908160008201548152602001600182018054610af3906116c6565b80601f0160208091040260200160405190810160405280929190818152602001828054610b1f906116c6565b8015610b6c5780601f10610b4157610100808354040283529160200191610b6c565b820191906000526020600020905b815481529060010190602001808311610b4f57829003601f168201915b5050505050815260200160028201548152602001600382018054610b8f906116c6565b80601f0160208091040260200160405190810160405280929190818152602001828054610bbb906116c6565b8015610c085780601f10610bdd57610100808354040283529160200191610c08565b820191906000526020600020905b815481529060010190602001808311610beb57829003601f168201915b505050505081526020016004820160009054906101000a900473ffffffffffffffffffffffffffffffffffffffff1673ffffffffffffffffffffffffffffffffffffffff1673ffffffffffffffffffffffffffffffffffffffff168152602001600582015481526020016006820160009054906101000a900460ff16151515158152602001600782018054610c9c906116c6565b80601f0160208091040260200160405190810160405280929190818152602001828054610cc8906116c6565b8015610d155780601f10610cea57610100808354040283529160200191610d15565b820191906000526020600020905b815481529060010190602001808311610cf857829003601f168201915b50505050508152602001600882018054610d2e906116c6565b80601f0160208091040260200160405190810160405280929190818152602001828054610d5a906116c6565b8015610da75780601f10610d7c57610100808354040283529160200191610da7565b820191906000526020600020905b815481529060010190602001808311610d8a57829003601f168201915b5050505050815250509050919050565b60405180610120016040528060008152602001606081526020016000815260200160608152602001600073ffffffffffffffffffffffffffffffffffffffff1681526020016000815260200160001515815260200160608152602001606081525090565b6000604051905090565b600080fd5b600080fd5b600080fd5b600080fd5b6000601f19601f8301169050919050565b7f4e487b7100000000000000000000000000000000000000000000000000000000600052604160045260246000fd5b610e8282610e39565b810181811067ffffffffffffffff82111715610ea157610ea0610e4a565b5b80604052505050565b6000610eb4610e1b565b9050610ec08282610e79565b919050565b600067ffffffffffffffff821115610ee057610edf610e4a565b5b610ee982610e39565b9050602081019050919050565b82818337600083830152505050565b6000610f18610f1384610ec5565b610eaa565b905082815260208101848484011115610f3457610f33610e34565b5b610f3f848285610ef6565b509392505050565b600082601f830112610f5c57610f5b610e2f565b5b8135610f6c848260208601610f05565b91505092915050565b6000819050919050565b610f8881610f75565b8114610f9357600080fd5b50565b600081359050610fa581610f7f565b92915050565b60008060008060008060c08789031215610fc857610fc7610e25565b5b600087013567ffffffffffffffff811115610fe657610fe5610e2a565b5b610ff289828a01610f47565b965050602061100389828a01610f96565b955050604087013567ffffffffffffffff81111561102457611023610e2a565b5b61103089828a01610f47565b945050606061104189828a01610f96565b935050608087013567ffffffffffffffff81111561106257611061610e2a565b5b61106e89828a01610f47565b92505060a087013567ffffffffffffffff81111561108f5761108e610e2a565b5b61109b89828a01610f47565b9150509295509295509295565b6110b181610f75565b82525050565b60006020820190506110cc60008301846110a8565b92915050565b600081519050919050565b600082825260208201905092915050565b6000819050602082019050919050565b61110781610f75565b82525050565b600081519050919050565b600082825260208201905092915050565b60005b8381101561114757808201518184015260208101905061112c565b60008484015250505050565b600061115e8261110d565b6111688185611118565b9350611178818560208601611129565b61118181610e39565b840191505092915050565b600073ffffffffffffffffffffffffffffffffffffffff82169050919050565b60006111b78261118c565b9050919050565b6111c7816111ac565b82525050565b60008115159050919050565b6111e2816111cd565b82525050565b60006101208301600083015161120160008601826110fe565b50602083015184820360208601526112198282611153565b915050604083015161122e60408601826110fe565b50606083015184820360608601526112468282611153565b915050608083015161125b60808601826111be565b5060a083015161126e60a08601826110fe565b5060c083015161128160c08601826111d9565b5060e083015184820360e08601526112998282611153565b9150506101008301518482036101008601526112b58282611153565b9150508091505092915050565b60006112ce83836111e8565b905092915050565b6000602082019050919050565b60006112ee826110d2565b6112f881856110dd565b93508360208202850161130a856110ee565b8060005b85811015611346578484038952815161132785826112c2565b9450611332836112d6565b925060208a0199505060018101905061130e565b50829750879550505050505092915050565b6000602082019050818103600083015261137281846112e3565b905092915050565b611383816111ac565b811461138e57600080fd5b50565b6000813590506113a08161137a565b92915050565b600080604083850312156113bd576113bc610e25565b5b60006113cb85828601610f96565b92505060206113dc85828601611391565b9150509250929050565b6000602082840312156113fc576113fb610e25565b5b600061140a84828501610f96565b91505092915050565b600082825260208201905092915050565b600061142f8261110d565b6114398185611413565b9350611449818560208601611129565b61145281610e39565b840191505092915050565b611466816111ac565b82525050565b611475816111cd565b82525050565b600061012082019050611491600083018c6110a8565b81810360208301526114a3818b611424565b90506114b2604083018a6110a8565b81810360608301526114c48189611424565b90506114d3608083018861145d565b6114e060a08301876110a8565b6114ed60c083018661146c565b81810360e08301526114ff8185611424565b90508181036101008301526115148184611424565b90509a9950505050505050505050565b60006101208301600083015161153d60008601826110fe565b50602083015184820360208601526115558282611153565b915050604083015161156a60408601826110fe565b50606083015184820360608601526115828282611153565b915050608083015161159760808601826111be565b5060a08301516115aa60a08601826110fe565b5060c08301516115bd60c08601826111d9565b5060e083015184820360e08601526115d58282611153565b9150506101008301518482036101008601526115f18282611153565b9150508091505092915050565b600060208201905081810360008301526116188184611524565b905092915050565b7f4e487b7100000000000000000000000000000000000000000000000000000000600052601160045260246000fd5b600061165a82610f75565b91507fffffffffffffffffffffffffffffffffffffffffffffffffffffffffffffffff820361168c5761168b611620565b5b600182019050919050565b7f4e487b7100000000000000000000000000000000000000000000000000000000600052602260045260246000fd5b600060028204905060018216806116de57607f821691505b6020821081036116f1576116f0611697565b5b50919050565b60008190508160005260206000209050919050565b60006020601f8301049050919050565b600082821b905092915050565b6000600883026117597fffffffffffffffffffffffffffffffffffffffffffffffffffffffffffffffff8261171c565b611763868361171c565b95508019841693508086168417925050509392505050565b6000819050919050565b60006117a061179b61179684610f75565b61177b565b610f75565b9050919050565b6000819050919050565b6117ba83611785565b6117ce6117c6826117a7565b848454611729565b825550505050565b600090565b6117e36117d6565b6117ee8184846117b1565b505050565b5b81811015611812576118076000826117db565b6001810190506117f4565b5050565b601f82111561185757611828816116f7565b6118318461170c565b81016020851015611840578190505b61185461184c8561170c565b8301826117f3565b50505b505050565b600082821c905092915050565b600061187a6000198460080261185c565b1980831691505092915050565b60006118938383611869565b9150826002028217905092915050565b6118ac8261110d565b67ffffffffffffffff8111156118c5576118c4610e4a565b5b6118cf82546116c6565b6118da828285611816565b600060209050601f83116001811461190d57600084156118fb578287015190505b6119058582611887565b86555061196d565b601f19841661191b866116f7565b60005b828110156119435784890151825560018201915060208501945060208101905061191e565b86831015611960578489015161195c601f891682611869565b8355505b6001600288020188555050505b505050505050565b6000602082019050818103600083015261198f8184611424565b905092915050565b60006119a282610f75565b91506119ad83610f75565b92508282039050818111156119c5576119c4611620565b5b92915050565b7f4e487b7100000000000000000000000000000000000000000000000000000000600052603260045260246000fd5b7f4f6e6c79206f776e65722063616e207472616e73666572206c616e6400000000600082015250565b6000611a30601c83611413565b9150611a3b826119fa565b602082019050919050565b60006020820190508181036000830152611a5f81611a23565b905091905056fea2646970667358221220b9eff256280742ff3a0a5f0e7a05ac9fc0eeb2fb4b3bd867128c3c137c53929064736f6c634300081c0033",
  "linkReferences": {},
  "deployedLinkReferences": {}
}